:020000040000fa
:080000000002040000000000f2
:020000040000fa
:04000800700500007f
:020000040000fa
:04000c00d604000016
:020000040000fa
:04001000f6040000f2
:020000040000fa
:04001400b005000033
:020000040000fa
:04001800900500004f
:020000040000fa
:04001c0018060000c2
:020000040000fa
:0400200016050000c1
:020000040000fa
:0400240018060000ba
:020000040000fa
:0400280018060000b6
:020000040000fa
:04002c00f8050000d3
:020000040000fa
:0400300018060000ae
:020000040000fa
:0400340018060000aa
:020000040000fa
:0400380018060000a6
:020000040000fa
:04003c0018060000a2
:020000040000fa
:04004000180600009e
:020000040000fa
:04004400180600009a
:020000040000fa
:040048001806000096
:020000040000fa
:04004c001806000092
:020000040000fa
:04005000180600008e
:020000040000fa
:04005400180600008a
:020000040000fa
:040058001806000086
:020000040000fa
:04005c001806000082
:020000040000fa
:04006000180600007e
:020000040000fa
:04006400180600007a
:020000040000fa
:040068001806000076
:020000040000fa
:04006c001806000072
:020000040000fa
:04007000180600006e
:020000040000fa
:04007400180600006a
:020000040000fa
:040078001806000066
:020000040000fa
:04007c001806000062
:020000040000fa
:04008000180600005e
:020000040000fa
:04008400180600005a
:020000040000fa
:040088001806000056
:020000040000fa
:04008c001806000052
:020000040000fa
:04009000180600004e
:020000040000fa
:04009400180600004a
:020000040000fa
:040098001806000046
:020000040000fa
:04009c001806000042
:020000040000fa
:0400a000180600003e
:020000040000fa
:0400a400180600003a
:020000040000fa
:0400a8001806000036
:020000040000fa
:0400ac001806000032
:020000040000fa
:0400b000180600002e
:020000040000fa
:0400b400180600002a
:020000040000fa
:0400b8001806000026
:020000040000fa
:0400bc001806000022
:020000040000fa
:0400c000180600001e
:020000040000fa
:0400c400180600001a
:020000040000fa
:0400c8001806000016
:020000040000fa
:0400cc001806000012
:020000040000fa
:0400d000180600000e
:020000040000fa
:0400d400180600000a
:020000040000fa
:0400d8001806000006
:020000040000fa
:0400dc00d205000049
:020000040000fa
:0400e00018060000fe
:020000040000fa
:0400e40018060000fa
:020000040000fa
:0400e80018060000f6
:020000040000fa
:0400ec0018060000f2
:020000040000fa
:0400f00018060000ee
:020000040000fa
:0400f40018060000ea
:020000040000fa
:0400f80018060000e6
:020000040000fa
:0400fc0018060000e2
:020000040000fa
:0401000018060000dd
:020000040000fa
:0401040018060000d9
:020000040000fa
:0401080018060000d5
:020000040000fa
:04010c0018060000d1
:020000040000fa
:0401100018060000cd
:020000040000fa
:0401140018060000c9
:020000040000fa
:0401180018060000c5
:020000040000fa
:04011c0018060000c1
:020000040000fa
:0401200018060000bd
:020000040000fa
:0401240018060000b9
:020000040000fa
:0401280018060000b5
:020000040000fa
:04012c0018060000b1
:020000040000fa
:0401300018060000ad
:020000040000fa
:0401340018060000a9
:020000040000fa
:0401380018060000a5
:020000040000fa
:04013c0018060000a1
:020000040000fa
:04014000180600009d
:020000040000fa
:040144001806000099
:020000040000fa
:040148001806000095
:020000040000fa
:04014c001806000091
:020000040000fa
:04015000180600008d
:020000040000fa
:040154001806000089
:020000040000fa
:040158001806000085
:020000040000fa
:04015c001806000081
:020000040000fa
:04016000180600007d
:020000040000fa
:040164001806000079
:020000040000fa
:040168001806000075
:020000040000fa
:04016c001806000071
:020000040000fa
:04017000180600006d
:020000040000fa
:040174001806000069
:020000040000fa
:040178001806000065
:020000040000fa
:04017c001806000061
:020000040000fa
:04018000180600005d
:020000040000fa
:040184001806000059
:020000040000fa
:040188001806000055
:020000040000fa
:04018c001806000051
:020000040000fa
:040190004604000021
:020000040000fa
:040194001806000049
:020000040000fa
:040198001806000045
:020000040000fa
:04019c001806000041
:020000040000fa
:0401a000180600003d
:020000040000fa
:0401a4001806000039
:020000040000fa
:0401a8001806000035
:020000040000fa
:0401ac001806000031
:020000040000fa
:0401b00098040000af
:020000040000fa
:0401b4001806000029
:020000040000fa
:0401b8001806000025
:020000040000fa
:0401bc001806000021
:020000040000fa
:0401c000180600001d
:020000040000fa
:0401c4001806000019
:020000040000fa
:0401c8001806000015
:020000040000fa
:0401cc001806000011
:020000040000fa
:0401d000180600000d
:020000040000fa
:0401d4001806000009
:020000040000fa
:0401d8001806000005
:020000040000fa
:0401dc001806000001
:020000040000fa
:0401e00018060000fd
:020000040000fa
:0401e40018060000f9
:020000040000fa
:0401e80018060000f5
:020000040000fa
:0401ec0018060000f1
:020000040000fa
:0401f00018060000ed
:020000040000fa
:0401f40018060000e9
:020000040000fa
:0401f80018060000e5
:020000040000fa
:0401fc0018060000e1
:020000040000fa
:0402000018060000dc
:020000040000fa
:0402040018060000d8
:020000040000fa
:0402080018060000d4
:020000040000fa
:04020c0018060000d0
:020000040000fa
:0402100018060000cc
:020000040000fa
:0402140018060000c8
:020000040000fa
:0402180018060000c4
:020000040000fa
:04021c0018060000c0
:020000040000fa
:0402200018060000bc
:020000040000fa
:0402240018060000b8
:020000040000fa
:0402280018060000b4
:020000040000fa
:04022c0018060000b0
:020000040000fa
:0402300018060000ac
:020000040000fa
:0402340018060000a8
:020000040000fa
:0402380018060000a4
:020000040000fa
:04023c0018060000a0
:020000040000fa
:04024000180600009c
:020000040000fa
:040244001806000098
:020000040000fa
:040248001806000094
:020000040000fa
:04024c001806000090
:020000040000fa
:04025000180600008c
:020000040000fa
:040254001806000088
:020000040000fa
:040258001806000084
:020000040000fa
:04025c001806000080
:020000040000fa
:04026000180600007c
:020000040000fa
:040264001806000078
:020000040000fa
:040268001806000074
:020000040000fa
:04026c001806000070
:020000040000fa
:04027000180600006c
:020000040000fa
:040274001806000068
:020000040000fa
:040278001806000064
:020000040000fa
:04027c001806000060
:020000040000fa
:04028000180600005c
:020000040000fa
:040284001806000058
:020000040000fa
:040288001806000054
:020000040000fa
:04028c001806000050
:020000040000fa
:04029000180600004c
:020000040000fa
:040294001806000048
:020000040000fa
:040298001806000044
:020000040000fa
:04029c001806000040
:020000040000fa
:0402a000180600003c
:020000040000fa
:0402a4001806000038
:020000040000fa
:0402a8001806000034
:020000040000fa
:0402ac001806000030
:020000040000fa
:0402b000180600002c
:020000040000fa
:0402b4001806000028
:020000040000fa
:0402b8001806000024
:020000040000fa
:0402bc001806000020
:020000040000fa
:0402c000180600001c
:020000040000fa
:0402c4001806000018
:020000040000fa
:0402c8001806000014
:020000040000fa
:0402cc001806000010
:020000040000fa
:0402d000180600000c
:020000040000fa
:0402d4001806000008
:020000040000fa
:0402d8001806000004
:020000040000fa
:0402dc001806000000
:020000040000fa
:0402e00018060000fc
:020000040000fa
:0402e40018060000f8
:020000040000fa
:0402e80018060000f4
:020000040000fa
:0402ec0018060000f0
:020000040000fa
:0402f00018060000ec
:020000040000fa
:0402f40018060000e8
:020000040000fa
:0402f80018060000e4
:020000040000fa
:0402fc0018060000e0
:020000040000fa
:0403000018060000db
:020000040000fa
:0403040018060000d7
:020000040000fa
:0403080018060000d3
:020000040000fa
:04030c0018060000cf
:020000040000fa
:0403100018060000cb
:020000040000fa
:0403140018060000c7
:020000040000fa
:0403180018060000c3
:020000040000fa
:04031c0018060000bf
:020000040000fa
:0403200018060000bb
:020000040000fa
:0403240018060000b7
:020000040000fa
:0403280018060000b3
:020000040000fa
:04032c0018060000af
:020000040000fa
:0403300018060000ab
:020000040000fa
:0403340018060000a7
:020000040000fa
:100400000f0421000eff26000e01880000000000ee
:10041000000020000000e000020032000001200087
:100420002002880014000700030207000000e0001b
:1004300003003a00e0ed2100010020000200370037
:100440000000200001002000810f70000100320038
:100450000f000700000020000000e0000200320052
:100460000000020000000000921a020000000000dc
:100470000040da000000fe00000b20000000e00059
:1004800002003200002020009001880000000600d9
:10049000a1028800800478000000eb001f003700f4
:1004a000e284440054a0b4009905ba00e2844400f8
:1004b00054a0b4009906ba00e284440054a0b400e9
:1004c0000006eb00476fde00fd07b200ae018800ba
:1004d000636ce10003003a000ad801000000eb0061
:1004e0000e003700606ce10008003a00004deb00a0
:1004f0000a05e800020039003420ec000af0a000f0
:100500008b05e900f9ff3e00040037006168e10057
:10051000010032000086eb000b00070019c7ba008b
:100520001905ba000e04e00003003a000a00e000da
:10053000dbff3a0000000600fe07b200ae028800b2
:100540008a047800f5ff37000cd0a300e20f4d00bd
:100550001c003b0089027800354dba000a05e8000e
:10056000020039003420ec000af0a0008b05e900fd
:100570000f003200254dba000a05e80002003900dc
:100580003420ec000af0a0008b05e90008003200de
:100590000c00e0000600320015cdba000a05e800a4
:1005a000020039003420ec000af0a0008b05e900bd
:1005b0008984e80054a0b4000b00e000e2ff3a0098
:1005c000000006009902ba00055d78008b05e9007d
:1005d000f7ff3200c82ade00055d78008b05e900d0
:1005e000f3ff32000c00e000f1ff320019ddba0029
:1005f000eeff370018190400000000004c19040039
:10060000000000009e190400000000003a190400d8
:10061000000000008c1904000000000056190400be
:100620000000000084150400000000009c15040078
:1006300000000000b415040000000000ca1504000a
:1006400000000000a617040000000000d0180400fd
:1006500000000000f615040000000000de16040093
:1006600000000000be14040000000000c6140400d6
:1006700000000000ce14040000000000d6140400a6
:1006800000000000de14040000000000e614040076
:100690000000000002150400000000002c150400fa
:1006a000000000004a15040000000000521504007c
:1006b000000000005a15040000000000621504004c
:1006c0000000000006190400000000001e190400cc
:1006d0000000000048140400000000005212040052
:1006e000000000006213040000000000d0070400b6
:1006f00000000000c407040000000000dc07040044
:1007000000000000e807040000000000f4070400f7
:100710000000000000080400000000001a070400a8
:10072000000000002e080400000000005c08040027
:1007300000000000ba08040000000000e8080400ff
:10074000000000004c09040000000000da09040069
:1007500000000000560a040000000000980a04008f
:1007600000000000be0a040000000000e40a0400cb
:10077000000000000a0b040000000000300b040021
:10078000000000005e0b0400000000008c0b040061
:1007900000000000c60b040000000000f40b040081
:1007a00000000000980c040000000000e00d0400b0
:1007b000000000003c0d040000000000f4060400ee
:1007c00000000000ce06040000000000ca0f040074
:1007d00000000000f80f04000000000026100400d4
:1007e000000000004a0f040000000000700f040029
:1007f000000000002c12040000000000541004004f
:1008000000000000ca1004000000000040110400b5
:1008100000000000b61104000000000036140400bf
:10082000000000005014040000000000221d04001d
:1008300000000000b41d0400000000003c1d040086
:1008400000000000521d040000000000621d0400b2
:10085000000000006e1d040000000000781d040070
:1008600000000000281d040000000000321d0400ec
:1008700000000000841d040000000000a21d040010
:10088000000000008c1a0400000000003600f80090
:10089000809fbe00829fbe00849fbe00869fbe00d8
:1008a0003200f8003400f80010002000a001880099
:1008b0000020200000d0fe000200fa00a08080008e
:1008c0000000e00002003200a08080000000010073
:1008d00060408000640060000000e0000a00320018
:1008e000d1608000010f7800b08080000000e0003f
:1008f00004003200b28080009e0078000000eb000f
:10090000020001000c48a9000b48a9000080fa0071
:100910003400f9003200f9004f03be004f02be0060
:100920004f01be004f00be003600f9000040060037
:100930003600f800809fbe00829fbe00849fbe00ec
:10094000869fbe003200f8003400f800100020003e
:10095000a00188000020200000d0fe000200fa0064
:10096000d1608000010f7800b08080000000e000be
:1009700004003200b28080009e0078000000eb008e
:10098000020001000c48a9000080fa003400f900c0
:100990003200f9004f03be004f02be004f01be00ff
:1009a0004f00be003600f900004006003600f80097
:1009b000809fbe00829fbe00849fbe00869fbe00b7
:1009c0000000fa00c068a90020002000410d0700c7
:1009d0000080fa004f03be004f02be004f01be0070
:1009e0004f00be003600f900004006003600f80057
:1009f000809fbe00829fbe00849fbe00869fbe0077
:100a00000000fa00c608a90070002000310d0700a0
:100a10000080fa004f03be004f02be004f01be002f
:100a20004f00be003600f900004006003600f80016
:100a3000809fbe00829fbe00849fbe00869fbe0036
:100a40000000fa0020468000700060000000e00016
:100a500003003200c488a900a00020001d0d07007b
:100a60002146800000022000008060000000e000bd
:100a700003003200c4a8a90090002000150d070053
:100a80002146800000102000008060000000e0008f
:100a900003003200c508a900c00020000d0d0700aa
:100aa0002146800000202000008060000000e0005f
:100ab00003003200c528a900d0002000050d070062
:100ac00020468000610060000000e000030032006a
:100ad000c408a900b0002000fe0c0700ffff37008b
:100ae0003600f800809fbe00829fbe00849fbe003b
:100af000869fbe000000fa00c028a9000000eb009d
:100b0000f40c07000080fa004f03be004f02be0045
:100b10004f01be004f00be003600f9000040060045
:100b20003600f800809fbe00829fbe00849fbe00fa
:100b3000869fbe000000fa00c088a9003000200097
:100b4000e40c07000080fa004f03be004f02be0015
:100b50004f01be004f00be003600f9000040060005
:100b60003600f800809fbe00829fbe00849fbe00ba
:100b7000869fbe000000fa00dd0c0700c048a900f7
:100b800010002000d30c07000080fa004f03be00c5
:100b90004f02be004f01be004f00be003600f900fc
:100ba000004006003600f800809fbe00829fbe0015
:100bb000849fbe00869fbe000000fa0090808000e7
:100bc0000000e00002003200908080000000010080
:100bd00005a8a9000080fa004f03be004f02be0026
:100be0004f01be004f00be003600f9000040060075
:100bf0003600f800809fbe00829fbe00849fbe002a
:100c0000869fbe000000fa00f08080000000010016
:100c10000028a9000080fa004f03be004f02be006a
:100c20004f01be004f00be003600f9000040060034
:0c0c30000040da000000fe00000005009b
:020000040000fa
:100c3c005212000062130000d0070000c40700002d
:100c4c00dc070000e8070000f407000000080000c3
:100c5c001a0700002e0800005c080000ba0800000b
:100c6c00e80800004c090000da090000560a0000f0
:100c7c00980a0000be0a0000e40a00000a0b0000fb
:100c8c00300b00005e0b00008c0b0000c60b00004c
:100c9c00f40b0000980c0000e00d00003c0d00006f
:100cac000000000000000000000000000000000038
:100cbc000000000000000000f4060000ce0600005a
:100ccc00ca0f0000f80f0000261000004a0f0000a9
:100cdc00700f00002c12000054100000ca1000000d
:100cec0040110000b6110000361400000000000096
:100cfc0050140000000000003a1900008c1900008c
:100d0c005619000000000000841500009c1500001e
:100d1c00b4150000ca15000000000000a617000062
:100d2c00d0180000f6150000de160000be140000fe
:100d3c00c6140000ce140000d6140000de1400000f
:100d4c00e6140000021500002c1500004a150000e6
:100d5c00521500005a15000062150000061900001b
:100d6c001e190000828600003c1d0000521d000070
:100d7c00621d00006e1d0000781d0000281d000083
:100d8c00321d0000841d0000a21d000000000000a8
:020000040000fa
:100d9c000200fa00000f78001e007800e20f5000ed
:100dac0006003200e30f500006003200e10f500045
:100dbc0007003a002be3a8000600370061e3a80007
:100dcc000400370097e3a800000000000100370082
:100ddc00000000000080fa00000006000200fa008b
:100dec00000f78001e007800e20f50000600320061
:100dfc00e30f500006003200e10f500007003a00ec
:100e0c002be3a9000600370061e3a90004003700ba
:100e1c0097e3a9000000000001003700000000006b
:100e2c000080fa00000006000400fa00000f7800b1
:100e3c00110798001e007800e20f50001c003200d1
:100e4c00e30f500032003200e10f500048003a002e
:100e5c001e00900000407800674060000080fb009e
:100e6c00670060005219800081ff2f008100610033
:100e7c0001007000501988001e009000e20f500015
:100e8c0006003a0091198000f0fc2f0000806000f1
:100e9c000040a0009019880036003700911980009e
:100eac00f0fc2f00008060009019880031003700a2
:100ebc001e00900000407800674060000080fb003e
:100ecc0067006000021b800081ff2f008100610021
:100edc0001007000001b88001e009000e20f500003
:100eec0006003a00411b8000f0fc2f0000806000df
:100efc000040a000401b88001e003700411b8000f2
:100f0c00f0fc2f0000806000401b880019003700a7
:100f1c001e00900000407800674060000080fb00dd
:100f2c0067006000b21c800081ff2f00810061000f
:100f3c0001007000b01c88001e009000e20f5000f1
:100f4c0006003a00f11c8000f0fc2f0000806000cd
:100f5c000040a000f01c880006003700f11c800047
:100f6c00f0fc2f0000806000f01c880001003700ae
:100f7c00000000000080fa00000006000000fa00eb
:100f8c002be3a80061e3a80097e3a8000080fa0017
:100f9c00000006000000fa002be3a90061e3a900a1
:100fac0097e3a9000080fa00000006000200fa0096
:100fbc00000f78009e007800511888000080fa001d
:100fcc00000006000200fa00000f78009e00780076
:100fdc00411888000080fa00000006000200fa00a8
:100fec00000f78009e007800311888000080fa000d
:100ffc00000006000400fa00000f780011079800aa
:10100c001e007800e20f500007003200e30f500082
:10101c0008003200e10f50000a003a009e009000d8
:10102c00911a8800080037009e009000411c88002f
:10103c00050037009e009000f11d880000000000a4
:10104c0001003700000000000080fa0000000600dc
:10105c000400fa00000f7800110798001e007800b9
:10106c00e20f500007003200e30f5000080032007e
:10107c00e10f50000a003a009e009000711a88009f
:10108c00080037009e009000211c880005003700e6
:10109c009e009000d11d8800000000000100370068
:1010ac00000000000080fa00000006000400fa00b6
:1010bc00000f7800110798001e007800e20f500016
:1010cc000f003200e30f500018003200e10f500007
:1010dc0022003a001e009000004078006140600041
:1010ec000080fb00610060004d00dd006119800094
:1010fc0001d0a100010070006019880018003700b1
:10110c001e00900000407800614060000080fb00f1
:10111c00610060004d00dd00111b800001d0a100ba
:10112c0001007000101b88000d0037001e0090009d
:10113c0000407800614060000080fb0061006000ae
:10114c004d00dd00c11c800001d0a1000100700029
:10115c00c01c8800000000000100370000000000e7
:10116c000080fa00000006000400fa00000f78006e
:10117c00110798001e007800e20f500007003200a3
:10118c00e30f500008003200e10f50000a003a0053
:10119c009e009000611a8800080037009e009000a5
:1011ac00111c8800050037009e009000c11d8800ae
:1011bc000000000001003700000000000080fa0071
:1011cc00000006000400fa00000f780011079800d8
:1011dc001e007800e20f500010003200e30f5000a8
:1011ec001a003200e10f500025003a001e0090005a
:1011fc0000407800634060000080fb0063006000ea
:10120c004a00dd0082198000f13f2f00810061004f
:10121c0001007000801988001a0037001e00900031
:10122c0000407800634060000080fb0063006000b9
:10123c004a00dd00321b8000f13f2f00810061006d
:10124c0001007000301b88000e0037001e0090005b
:10125c0000407800634060000080fb006300600089
:10126c004a00dd00e21c8000f13f2f00810061008c
:10127c0001007000e01c8800000000000100370035
:10128c00000000000080fa00000006000400fa00d4
:10129c00000f7800214798001e007800e20f5000e4
:1012ac0017003200e30f500028003200e10f50000d
:1012bc003a003a0080198000ba800a000000000051
:1012cc00e14060002e4090000080fb0000004000d8
:1012dc000040780000c07000634060000080fb009c
:1012ec00630060004a00dd0082198000f13f2f008e
:1012fc00810061000100700080198800280037000f
:10130c00301b8000ba800a0000000000e140600041
:10131c002e4090000080fb00000040000040780050
:10132c0000c07000634060000080fb006300600040
:10133c004a00dd00321b8000f13f2f00810061006c
:10134c0001007000301b880015003700e01c800085
:10135c00ba800a0000000000e14060002e409000be
:10136c000080fb00000040000040780000c07000ce
:10137c00634060000080fb00630060004a00dd00f9
:10138c00e21c8000f13f2f00810061000100700021
:10139c00e01c880000000000010037000000000085
:1013ac000080fa00000006000400fa00000f78002c
:1013bc00214798001e007800e20f50001400320004
:1013cc00e30f500022003200e10f500031003a00d0
:1013dc0080198000ba800a0000000000e240600022
:1013ec002e40900000c07000634060000080fb0045
:1013fc00630060004a00dd0082198000f13f2f007d
:10140c008100610001007000801988002200370003
:10141c00301b8000ba800a0000000000e24060002f
:10142c002e40900000c07000634060000080fb0004
:10143c00630060004a00dd00321b8000f13f2f008a
:10144c008100610001007000301b88001200370021
:10145c00e01c8000ba800a0000000000e24060003e
:10146c002e40900000c07000634060000080fb00c4
:10147c00630060004a00dd00e21c8000f13f2f0099
:10148c008100610001007000e01c88000000000079
:10149c0001003700000000000080fa000000060088
:1014ac000400fa00100798000000eb00000f780011
:1014bc001e009000e20f50000a003200e30f5000b3
:1014cc000e003200e10f500012003a00801980002b
:1014dc00ba800a00000000000080fb00000f7800ba
:1014ec000d003700301b8000ba800a00000000009d
:1014fc000080fb00000f780007003700e01c800024
:10150c00ba800a00000000000080fb00000f780089
:10151c0001003700000000001e0078000080fa0077
:10152c00000006000200fa00000f78001e00780090
:10153c00e20f500006003200e30f500006003200ac
:10154c00e10f500007003a0031a3a8000600370055
:10155c0067a3a800040037009da3a80000000000aa
:10156c0001003700000000000080fa0000000600b7
:10157c000200fa00000f78001e007800e20f500005
:10158c0006003200e30f500006003200e10f50005d
:10159c0007003a003183a800060037006783a800d3
:1015ac00040037009d83a8000000000001003700f4
:1015bc00000000000080fa00000006000200fa00a3
:1015cc00000f78001e007800e20f50000600320079
:1015dc00e30f500006003200e10f500007003a0004
:1015ec0031a3a9000600370067a3a9000400370047
:1015fc009da3a900000000000100370000000000be
:10160c000080fa00000006000200fa00000f7800cb
:10161c001e007800e20f500006003200e30f50006d
:10162c0006003200e10f500007003a003183a90098
:10163c00060037006783a900040037009d83a900ca
:10164c000000000001003700000000000080fa00dc
:10165c00000006000400fa00000f78001107980043
:10166c001e007800e20f500007003200e30f50001c
:10167c0008003200e10f50000a003a009e00900072
:10168c00d11a8800080037009e009000811c880049
:10169c00050037009e009000311e880000000000fd
:1016ac0001003700000000000080fa000000060076
:1016bc000400fa00000f7800110798001e00780053
:1016cc00e20f500007003200e30f50000800320018
:1016dc00e10f50000a003a009e009000e11a8800c9
:1016ec00080037009e009000911c88000500370010
:1016fc009e009000411e8800000000000100370091
:10170c00000000000080fa00000006000400fa004f
:10171c00000f7800110798001e007800e20f5000af
:10172c0009003200e30f50000c003200e10f5000b2
:10173c0010003a009e009000d11a88009e00900084
:10174c00e11a88000c0037009e009000811c880074
:10175c009e009000911c8800070037009e009000ae
:10176c00311e88009e009000411e88000000000081
:10177c0001003700000000000080fa0000000600a5
:10178c000400fa00000f7800110798001e00780082
:10179c00e20f500007003200e30f50000800320047
:1017ac00e10f50000a003a009e009000a11a880038
:1017bc00080037009e009000511c8800050037007f
:1017cc009e009000011e8800000000000100370000
:1017dc00000000000080fa00000006000400fa007f
:1017ec00000f7800110798001e007800e20f5000df
:1017fc001b003200e30f500030003200e10f5000ac
:10180c0045003a001e009000e20f50000c00320020
:10181c00e20f500003003e00e10f500006003200c2
:10182c000d003700e30f500007003200e40f5000aa
:10183c00070032000800370037e3a8000700370024
:10184c0037c3a8000500370037a3a80003003700f2
:10185c003783a80001003700000000002f0037007c
:10186c001e009000e20f50000c003200e20f5000fe
:10187c0003003e00e10f5000060032000d0037005f
:10188c00e30f500007003200e40f50000700320055
:10189c00080037006de3a800070037006dc3a800ef
:1018ac00050037006da3a800030037006d83a80066
:1018bc000100370000000000180037001e009000e7
:1018cc00e20f50000c003200e20f500003003e000b
:1018dc00e10f5000060032000d003700e30f5000fe
:1018ec0007003200e40f50000700320008003700f8
:1018fc00a3e3a80006003700a3c3a8000400370028
:10190c00a3a3a80002003700a383a80000000000d6
:10191c000000000001003700000000000080fa0009
:10192c00000006000400fa00000f78001107980070
:10193c001e007800e20f50001b003200e30f500035
:10194c0030003200e10f500045003a001e009000bc
:10195c00e20f50000c003200e20f500003003e007a
:10196c00e10f5000060032000d003700e30f50006d
:10197c0007003200e40f5000070032000800370067
:10198c0037e3a9000700370037c3a900050037006b
:10199c0037a3a900030037003783a90001003700e3
:1019ac00000000002f0037001e009000e20f5000d6
:1019bc000c003200e20f500003003e00e10f50001b
:1019cc00060032000d003700e30f50000700320014
:1019dc00e40f500007003200080037006de3a90047
:1019ec00070037006dc3a900050037006da3a900df
:1019fc00030037006d83a9000100370000000000d0
:101a0c00180037001e009000e20f50000c0032004e
:101a1c00e20f500003003e00e10f500006003200c0
:101a2c000d003700e30f500007003200e40f5000a8
:101a3c000700320008003700a3e3a90006003700b6
:101a4c00a3c3a90004003700a3a3a9000200370018
:101a5c00a383a90000000000000000000100370073
:101a6c00000000000080fa00000006000400fa00ec
:101a7c00000f7800110798001e007800e20f50004c
:101a8c001b003200e30f500030003200e10f500019
:101a9c0045003a001e009000e20f50000c0032008e
:101aac00e20f500003003e00e10f50000600320030
:101abc000d003700e30f500007003200e40f500018
:101acc0007003200080037002fc3a90007003700b9
:101adc002fa3a900050037002f83a90003003700ae
:101aec002fe3a90001003700000000002f00370091
:101afc001e009000e20f50000c003200e20f50006c
:101b0c0003003e00e10f5000060032000d003700cc
:101b1c00e30f500007003200e40f500007003200c2
:101b2c000800370065c3a9000700370065a3a900aa
:101b3c00050037006583a9000300370065e3a900a1
:101b4c000100370000000000180037001e00900054
:101b5c00e20f50000c003200e20f500003003e0078
:101b6c00e10f5000060032000d003700e30f50006b
:101b7c0007003200e40f5000070032000800370065
:101b8c009bc3a900060037009ba3a90004003700e3
:101b9c009b83a900020037009be3a9000000000012
:101bac000000000001003700000000000080fa0077
:101bbc00000006000600fa001007980021079800a4
:101bcc000040eb00004f78001e009000e20f500028
:101bdc003b003200e30f500070003200e10f500068
:101bec00a5003a002e009000e20f500014003200c5
:101bfc00e20f500003003e00e10f500006003200df
:101c0c002d003700e30f500017003200e40f500096
:101c1c001f0032002800370070198000ee800a0087
:101c2c00000000000080fb0000f0a7000000ea00ac
:101c3c000000ea004f00de00004f78001f00370064
:101c4c0070198000dd800a00000000000080fb009d
:101c5c0000f0a7000000ea000000ea004f00de00e0
:101c6c00004f78001500370070198000cc800a00f6
:101c7c00000000000080fb0000f0a7000000ea005c
:101c8c000000ea004f00de00004f78000b00370028
:101c9c0070198000ff800a00000000000080fb002b
:101cac0000f0a7000000ea000000ea004f00de0090
:101cbc00004f780001003700000000006f00370073
:101ccc002e009000e20f500014003200e20f500082
:101cdc0003003e00e10f5000060032002d003700db
:101cec00e30f500017003200e40f50001f003200c9
:101cfc0028003700201b8000ee800a000000000046
:101d0c000080fb0000f0a7000000ea000000ea00e1
:101d1c004f00de00004f78001f003700201b8000b2
:101d2c00dd800a00000000000080fb0000f0a7002e
:101d3c000000ea000000ea004f00de00004f7800cf
:101d4c0015003700201b8000cc800a00000000002a
:101d5c000080fb0000f0a7000000ea000000ea0091
:101d6c004f00de00004f78000b003700201b800076
:101d7c00ff800a00000000000080fb0000f0a700bc
:101d8c000000ea000000ea004f00de00004f78007f
:101d9c000100370000000000380037002e009000d2
:101dac00e20f500014003200e20f500003003e001e
:101dbc00e10f5000060032002d003700e30f5000f9
:101dcc0017003200e40f50001f00320028003700cb
:101ddc00d01c8000ee800a00000000000080fb0098
:101dec0000f0a7000000ea000000ea004f00de004f
:101dfc00004f78001f003700d01c8000dd800a00e7
:101e0c00000000000080fb0000f0a7000000ea00ca
:101e1c000000ea004f00de00004f7800150037008c
:101e2c00d01c8000cc800a00000000000080fb0069
:101e3c0000f0a7000000ea000000ea004f00de00fe
:101e4c00004f78000b003700d01c8000ff800a0088
:101e5c00000000000080fb0000f0a7000000ea007a
:101e6c000000ea004f00de00004f78000100370050
:101e7c000000000001003700000000001e40780048
:101e8c000080fa00000006000200fa00000f780043
:101e9c001e007800e20f500006003200e30f5000e5
:101eac0006003200e10f500007003a002e63a80034
:101ebc00060037006463a800040037009a63a8008a
:101ecc000000000001003700000000000080fa0054
:101edc00000006000400fa00100798000040eb0018
:101eec00004f78001e009000e20f50000e003200f0
:101efc00e30f500016003200e10f50001e003a00b4
:101f0c007019800044800a00000000000080fb0073
:101f1c0000f0a7000000ea000000ea004f00de001d
:101f2c00004f780015003700201b800044800a0009
:101f3c00000000000080fb0000f0a7000000ea0099
:101f4c000000ea004f00de00004f78000b00370065
:101f5c00d01c800044800a00000000000080fb00c0
:101f6c0000f0a7000000ea000000ea004f00de00cd
:101f7c00004f780001003700000000001e40780080
:101f8c000080fa00000006000400fa00000f780040
:101f9c00110798001e007800e20f50000700320075
:101fac00e30f500008003200e10f50000a003a0025
:101fbc009e009000a11a8800080037009e00900037
:101fcc00511c8800050037009e009000011e8800ff
:101fdc000000000001003700000000000080fa0043
:101fec00000006000400fa00000f780011079800aa
:101ffc001e007800e20f500007003200e30f500083
:10200c0008003200e10f50000a003a009e009000d8
:10201c00b11a8800080037009e009000611c8800ef
:10202c00050037009e009000111e88000000000083
:10203c0001003700000000000080fa0000000600dc
:10204c000400fa00000f7800110798001e007800b9
:10205c00e20f500007003200e30f5000080032007e
:10206c00e10f50000a003a009e009000c11a88004f
:10207c00080037009e009000711c88000500370096
:10208c009e009000211e8800000000000100370017
:10209c00000000000080fa00000006000400fa00b6
:1020ac00000f7800110798001e007800e20f500016
:1020bc0013003200e30f500020003200e10f5000fb
:1020cc002e003a001e009000e20f50000700320074
:1020dc00e30f500007003200e10f50000100320006
:1020ec00060037003503a800040037003523a8008c
:1020fc00020037003543a800000000002000370024
:10210c001e009000e20f500007003200e30f500059
:10211c0007003200e10f50000100320006003700ca
:10212c006b03a800040037006b23a80002003700e3
:10213c006b43a80000000000110037001e00900047
:10214c00e20f500006003200e30f50000600320090
:10215c00e10f500006003a00a103a800050037006b
:10216c00a123a80003003700a143a80001003700f9
:10217c00000000000000000001003700000000001b
:10218c000080fa00000006000400fa00000f78003e
:10219c00110798001e007800e20f50001300320067
:1021ac00e30f500020003200e10f50002e003a00e7
:1021bc001e009000e20f500007003200e30f5000a9
:1021cc0007003200e10f500001003200060037001a
:1021dc003503a900040037003523a900020037009d
:1021ec003543a90000000000200037001e009000bd
:1021fc00e20f500007003200e30f500007003200de
:10220c00e10f500001003200060037006b03a900fb
:10221c00040037006b23a900020037006b43a900b0
:10222c0000000000110037001e009000e20f50006b
:10223c0006003200e30f500006003200e10f5000a0
:10224c0006003a00a103a90005003700a123a9004c
:10225c0003003700a143a900010037000000000073
:10226c000000000001003700000000000080fa00b0
:10227c00000006000400fa00000f78001107980017
:10228c001e007800e20f500013003200e30f5000e4
:10229c0020003200e10f50002e003a001e0090008a
:1022ac00e20f500007003200e30f5000070032002d
:1022bc00e10f5000010032000600370036a3a800e1
:1022cc000400370036c3a8000200370036e3a8002c
:1022dc0000000000200037001e009000e20f5000ac
:1022ec0007003200e30f500007003200e10f5000ee
:1022fc0001003200060037006ca3a8000400370070
:10230c006cc3a800020037006ce3a80000000000ba
:10231c00110037001e009000e20f50000600320042
:10232c00e30f500006003200e10f500006003a00a7
:10233c00a2a3a80005003700a2c3a8000300370021
:10234c00a2e3a8000100370000000000000000001c
:10235c0001003700000000000080fa0000000600b9
:10236c000400fa00000f7800110798001e00780096
:10237c00e20f500013003200e30f50002000320037
:10238c00e10f50002e003a001e009000e20f5000aa
:10239c0007003200e30f500007003200e10f50003d
:1023ac00010032000600370036a3a90004003700f4
:1023bc0036c3a9000200370036e3a9000000000074
:1023cc00200037001e009000e20f50000700320082
:1023dc00e30f500007003200e10f50000100320003
:1023ec00060037006ca3a900040037006cc3a900d9
:1023fc00020037006ce3a900000000001100370058
:10240c001e009000e20f500006003200e30f500057
:10241c0006003200e10f500006003a00a2a3a9000a
:10242c0005003700a2c3a90003003700a2e3a900ee
:10243c000100370000000000000000000100370020
:10244c00000000000080fa00000006000200fa0004
:10245c00000f78001e007800e20f500006003200da
:10246c00e30f500006003200e10f500007003a0065
:10247c0038e3a800060037006ee3a800040037001c
:10248c00a4e3a800000000000100370000000000d9
:10249c000080fa00000006000000fa009000200006
:1024ac005019880090002000001b8800900020002c
:1024bc00b01c88005e23ef003e23ef003c23ef00ae
:1024cc002c23ef0050162000701a88005023ef00c8
:1024dc0030002000e01a880030002000d01a88005c
:1024ec003623ef0090112000a01988004223ef0042
:1024fc004023ef003a23ef003823ef00c000200008
:10250c009019880000202000801988004a23ef00d1
:10251c004823ef0030592000901a88004c23ef001c
:10252c004623ef004423ef002e23ef00c01d2000b4
:10253c00a01a88005623ef005823ef009423ef00d5
:10254c007423ef007223ef0010002000101b880092
:10255c0050162000201c88008623ef00300020003d
:10256c00901c880030002000801c88006c23ef0039
:10257c0090112000501b88007823ef007623ef0089
:10258c007023ef006e23ef00c0002000401b88007a
:10259c0000202000301b88008023ef007e23ef00fa
:1025ac0030592000401c88008223ef007c23ef0070
:1025bc007a23ef006423ef00c01d2000501c88001c
:1025cc008c23ef008e23ef00ca23ef00aa23ef0029
:1025dc00a823ef0020002000c01c8800501620000b
:1025ec00d01d8800bc23ef0030002000401e880066
:1025fc0030002000301e8800a223ef008000200055
:10260c00001d8800ae23ef00ac23ef00a623ef00e3
:10261c00a423ef00c0002000f01c88000020200044
:10262c00e01c8800b623ef00b423ef0030592000e3
:10263c00f01d8800b823ef00b223ef00b023ef00a9
:10264c009a23ef00c023ef00c223ef00c423ef0056
:10265c001023ef000e23ef000223ef000423ef0002
:10266c000c23ef001223ef001423ef001623ef00ce
:10267c001823ef001a23ef001c23ef000823ef00b0
:10268c0000012000501888000623ef000023ef0003
:10269c001e23ef002023ef002223ef002423ef0062
:1026ac002623ef002823ef00804421006c00070054
:1026bc000080fa00000006000000fa0035fa07005e
:1026cc002a23ef006023ef009623ef005e23ef0038
:1026dc003e23ef003c23ef002c23ef004e23ef00b2
:1026ec005023ef005c23ef005a23ef003623ef005a
:1026fc003423ef004223ef004023ef003a23ef0096
:10270c003823ef003223ef003023ef004a23ef0091
:10271c004823ef005223ef004c23ef004623ef0039
:10272c004423ef002e23ef005423ef005623ef0039
:10273c005823ef009423ef007423ef007223ef0073
:10274c006223ef008423ef008623ef009223ef0037
:10275c009023ef006c23ef006a23ef007823ef0047
:10276c007623ef007023ef006e23ef006823ef0059
:10277c006623ef008023ef007e23ef008823ef0019
:10278c008223ef007c23ef007a23ef006423ef0019
:10279c008a23ef008c23ef008e23ef00ca23ef0077
:1027ac00aa23ef00a823ef009823ef00ba23ef0031
:1027bc00bc23ef00c823ef00c623ef00a223ef00d9
:1027cc00a023ef00ae23ef00ac23ef00a623ef0015
:1027dc00a423ef009e23ef009c23ef00b623ef0011
:1027ec00b423ef00be23ef00b823ef00b223ef00b9
:1027fc00b023ef009a23ef00c023ef00c223ef00b9
:10280c00c423ef001023ef000e23ef000223ef0090
:10281c000423ef000c23ef001223ef001423ef002e
:10282c001623ef001823ef001a23ef001c23ef00f0
:10283c000823ef000a23ef000623ef000023ef002c
:10284c001e23ef002023ef002223ef002423ef00b0
:10285c002623ef002823ef000080fa00000006007a
:10286c000200fa00000f78001e0078000000e00063
:10287c00020032009e007800d18088000080fa00af
:10288c00000006000200fa00000f78000080fa0039
:10289c00000006000200fa00000f78001e0078000d
:1028ac00e20f500010003200e30f50001a0032000b
:1028bc00e10f500025003a004040800068006000a5
:1028cc000000e00023003200d08080000000e00017
:1028dc0003003200d18080001e007800010001004e
:1028ec000868a9002000370040408000700060009c
:1028fc000000e00019003200d08080000000e000f1
:10290c0003003200d18080001e007800010001001d
:10291c000888a90014003700414080000002200004
:10292c00008060000000e0000e003200d0808000cb
:10293c000000e00003003200d18080001e0078000f
:10294c000100010008a8a9000700370000000000e2
:10295c0005003700000000000300370000000000f5
:10296c0001003700000000000080fa0000000600a3
:10297c000000fa0001eba8000080fa00000006003d
:10298c000000fa0001eba9000080fa00000006002c
:10299c000000fa0008cba8000080fa000000060036
:1029ac000000fa0008cba9000080fa000000060025
:1029bc000200fa00000f78000080fa000000060008
:1029cc000400fa00100798000000eb00000f7800dc
:1029dc001e0090000000e00003003a00d16080006f
:1029ec00010f780001003700000000001e00780085
:1029fc000080fa00000006000400fa00100798009e
:102a0c000040eb00004f78001e0090000000e0003a
:102a1c000a003a008059800077800a00000000000c
:102a2c000080fb0000f0a7000000ea000000ea00b4
:102a3c004f00de00004f780001003700000000005e
:102a4c001e4078000080fa00000006000200fa0028
:102a5c00000f78001e007800004078006340600092
:102a6c000080fb00630060004500dd001258800010
:102a7c00f1f92f00810061000100700010588800ee
:102a8c000080fa00000006000000fa002b48a800a5
:102a9c000080fa00000006000000fa002b48a90094
:102aac000080fa00000006000000fa000b48a900a4
:102abc000080fa00000006000200fa00000f780007
:102acc001e0078000040780067406000674060009e
:102adc00674060000080fb00670060004800dd007c
:102aec0062438000f18f2f008100610001007000b3
:102afc00604388000080fa00000006000200fa0023
:102b0c00000f78001e0078000000e00004003a007e
:102b1c002c48a80020eba8000000000001003700a2
:102b2c00000000000080fa00000006000200fa001d
:102b3c00000f78001e0078000000e00004003a004e
:102b4c002c48a90020eba900000000000100370070
:102b5c00000000000080fa00000006000200fa00ed
:102b6c00000f78001e0078000000e00003003a001f
:102b7c000c48a90000000000010037000000000014
:102b8c000080fa00000006000400fa00000f780034
:102b9c00110798001e0078000000e0000d003a00bc
:102bac001e00900000407800674060000080fb0031
:102bbc00670060004800dd0082438000f18f2f0029
:102bcc00810061000100700080438800000000005b
:102bdc0001003700000000000080fa000000060031
:102bec000000fa00002bef000006200010588800af
:102bfc00042bef004000200030588800082bef0019
:102c0c0000102800505888000c2bef000e2bef0002
:102c1c00102bef00122bef00142bef00162bef00f4
:102c2c000008200000598800222bef00302bef0009
:102c3c00322bef00382bef00402bef00482bef002e
:102c4c00502bef003a2bef00422bef004a2bef00fa
:102c5c00522bef003c2bef00442bef004c2bef00e2
:102c6c00542bef003e2bef00462bef004e2bef00ca
:102c7c00562bef00682bef006c2bef00702bef0046
:102c8c00742bef0000402000505b880000402000b7
:102c9c00705b880000402000905b880000402000a2
:102cac00b05b8800a02bef00a42bef00a82bef004b
:102cbc00ac2bef00d02bef00d22bef00d42bef007e
:102ccc00d82bef0000302000b05e880000302000d0
:102cdc00d05e8800f02bef00f22bef00f82bef000a
:102cec00fa2bef00022cef000c2cef000e2cef0057
:102cfc00102cef00122cef00142cef00162cef0010
:102d0c00182cef001a2cef001c2cef001e2cef00df
:102d1c00202cef00222cef00242cef00262cef00af
:102d2c00282cef002a2cef002c2cef002e2cef007f
:102d3c00302cef00322cef003c2cef003e2cef003f
:102d4c00809121002e010700c0942100460107004c
:102d5c00e09921006d0107000c48a9002c48a8003f
:102d6c001160800000f020000100700010608800ed
:102d7c0001eba80072000700802bef00822bef0004
:102d8c00842bef0000402000305c8800882bef0083
:102d9c008a2bef008c2bef008e2bef00902bef008b
:102dac00922bef00982bef000080fa000000060039
:102dbc000200fa0001eba900d1608000010f78003d
:102dcc000c48a9002c48a900002bef00000620009d
:102ddc0010588800042bef00062bef00082bef0097
:102dec000a2bef000c2bef000e2bef00102bef003b
:102dfc00122bef00142bef00162bef00202bef0003
:102e0c00222bef00302bef00322bef00382bef0092
:102e1c00402bef00482bef00502bef003a2bef002c
:102e2c00422bef004a2bef00522bef003c2bef0014
:102e3c00442bef004c2bef00542bef003e2bef00fc
:102e4c00462bef004e2bef00562bef00682bef00bc
:102e5c006c2bef00702bef00742bef006a2bef0044
:102e6c006e2bef00722bef00762bef00802bef0018
:102e7c00822bef00842bef00862bef00882bef00ca
:102e8c008a2bef008c2bef008e2bef00902bef009a
:102e9c00922bef00982bef00a02bef00a42bef0050
:102eac00a82bef00ac2bef00d02bef00d22bef00b8
:102ebc00d42bef00d82bef0000302000b05e880040
:102ecc0000302000d05e8800f02bef00f22bef00da
:102edc00f82bef00fa2bef00002cef00022cef0088
:102eec000c2cef000e2cef00102cef00122cef002e
:102efc00142cef00162cef00182cef001a2cef00fe
:102f0c001c2cef001e2cef00202cef00222cef00cd
:102f1c00242cef00262cef00282cef002a2cef009d
:102f2c002c2cef002e2cef00302cef00322cef006d
:102f3c003c2cef003e2cef000080fa000000060055
:102f4c000000fa0000eca800000000000160800006
:102f5c0000002800008060000000e000fbff320051
:102f6c000aeba8000080fa00000006000600fa0038
:102f7c0010079800210798000000eb00000f780064
:102f8c001e009000e30f500034003200e30f50009d
:102f9c0005003e00e10f500018003200e10f500018
:102fac0022003e0009003700e50f500043003200bc
:102fbc00e50f500035003900e60f50004b00320091
:102fcc00e70f5000550032006f0037002e009000c4
:102fdc00e10f500003003a0020012000000f7800a0
:102fec00690037002e009000e20f500057003a00a5
:102ffc0030012000000f7800630037002e00900095
:10300c00e10f500003003a0000012000000f78008f
:10301c005d0037002e009000e20f50004d003a008a
:10302c0010012000000f7800570037002e00900090
:10303c00e10f500003003a00e0002000000f780080
:10304c00510037002e009000e20f500043003a0070
:10305c00f0002000000f78004b0037002e0090008d
:10306c00e10f500003003a00c0002000000f780070
:10307c00450037002e009000e20f500039003a0056
:10308c00d0002000000f78003f0037002e00900089
:10309c00e10f500003003a00a0002000000f780060
:1030ac00390037002e009000e20f50002f003a003c
:1030bc00b0002000000f7800330037002e00900085
:1030cc00e10f500003003a0080002000000f780050
:1030dc002d0037002e009000e20f500025003a0022
:1030ec0090002000000f7800270037002e00900081
:1030fc00e10f500003003a0060002000000f780040
:10310c00210037002e009000e20f50001b003a0007
:10311c0070002000000f78001b0037002e0090007c
:10312c00e10f500003003a0040002000000f78002f
:10313c00150037002e009000e20f500011003a00ed
:10314c0050002000000f78000f0037000000000036
:10315c000d003700000000000b00370000000000dd
:10316c0009003700000000000700370000000000d5
:10317c0005003700000000000300370000000000cd
:10318c0001003700000000001e0078000080fa00eb
:10319c00000006000800fa001007980021079800ac
:1031ac0032079800be0090002e0090006fff0700c1
:1031bc00000f78001e0090000000e0000d003a00a7
:1031cc001e007800004078007f4060000080fb000b
:1031dc007f0060004800dd00325c8000f10f2e00a3
:1031ec008100610001007000305c8800000000006c
:1031fc0001003700000000000080fa00000006000b
:10320c000200fa00000f78001e0078000000e000b9
:10321c00020032009e007800a18088000080fa0035
:10322c00000006000000fa000080fa000000060012
:10323c000000fa0051408000004020000080600037
:10324c000000e00006003200a08080000000e000da
:10325c0002003200a0808000000001000b48a90091
:10326c000080fa00000006000200fa00000f78004f
:10327c001e0078000000e000020032009e00780082
:10328c00b18088000080fa00000006000400fa00fb
:10329c00000f7800110798000080fa00000006006b
:1032ac000400fa00100798001e0090000000e000d7
:1032bc000f003a0081598000000820000080600057
:1032cc000000e0000c003200d1608000010f78009b
:1032dc00b08080000000e00009003200b280800065
:1032ec009e0078001e0090000200010005003700cf
:1032fc000000000003003700000000000100370050
:10330c00000000000080fa00000006000200fa0035
:10331c00000f78001e0078000000e0000200320070
:10332c009e007800c18088000080fa000000060032
:10333c000200fa00000f78000080fa00000006007e
:10334c000400fa00000f7800110798001e007800a6
:10335c00e20f500007003200e30f5000080032006b
:10336c00e10f50000a003a009e009000911a88006c
:10337c00080037009e009000411c880005003700b3
:10338c009e009000f11d8800000000000100370035
:10339c00000000000080fa00000006000400fa00a3
:1033ac00000f7800110798001e007800e20f500003
:1033bc0007003200e30f500008003200e10f50000c
:1033cc000a003a009e009000711a8800080037002d
:1033dc009e009000211c8800050037009e00900084
:1033ec00d11d880000000000010037000000000023
:1033fc000080fa00000006000400fa00000f7800bc
:10340c00110798001e007800e20f500007003200f0
:10341c00e30f500008003200e10f50000a003a00a0
:10342c009e009000d11a8800080037009e00900082
:10343c00811c8800050037009e009000311e88001a
:10344c000000000001003700000000000080fa00be
:10345c00000006000400fa00000f78001107980025
:10346c001e007800e20f500007003200e30f5000fe
:10347c0008003200e10f50000a003a009e00900054
:10348c00e11a8800080037009e009000911c88000b
:10349c00050037009e009000411e880000000000cf
:1034ac0001003700000000000080fa000000060058
:1034bc000400fa00000f7800110798001e00780035
:1034cc00e20f500007003200e30f500008003200fa
:1034dc00e10f50000a003a009e009000a11a8800eb
:1034ec00080037009e009000511c88000500370032
:1034fc009e009000011e88000000000001003700b3
:10350c00000000000080fa00000006000000fa0035
:10351c000080fa00000006000000fa005f020700bd
:10352c005080800080089000c0a82100010001009c
:10353c0000808000800078001000200080ff0700d1
:10354c000080800080007800200020007cff0700b5
:10355c0000808000800078003000200078ff070099
:10356c00208080008000780010002000d0ff070031
:10357c00208080008000780020002000ccff070015
:10358c0010808000800078001000200083ff07006e
:10359c001080800080007800200020007fff070052
:1035ac001080800080007800300020007bff070036
:1035bc004080800080007800100020008eff070003
:1035cc004080800080007800200020008aff0700e7
:1035dc0040808000800078003000200086ff0700cb
:1035ec0030808000800078001000200099ff0700d8
:1035fc0030808000800078002000200095ff0700bc
:10360c0030808000800078003000200091ff07009f
:10361c002be3a80061e3a80097e3a800fcff3700a8
:10362c000400fa00100798000040eb00004f7800ef
:10363c001e0090000000e00002003d0010c0b3002e
:10364c00004f78001e4078000080fa000000060051
:10365c000400fa00100798000040eb00004f7800bf
:10366c009e00900000002400008060000000e0003c
:10367c000200320010c0b300004f78001e407800ea
:10368c000080fa00000006000400fa001007980001
:10369c000040eb00004f78009e00900000202000be
:1036ac00008060000000e0000200320010c0b30097
:1036bc00004f78001e4078000080fa0000000600e1
:1036cc000400fa00100798000040eb00004f78004f
:1036dc009e00900000082000008060000000e000c8
:1036ec000200320010c0b300004f78001e4078007a
:1036fc000080fa00000006000400fa001007980091
:10370c000040eb00004f78009e0090000004200069
:10371c00008060000000e0000200320010c0b30026
:10372c00004f78001e4078000080fa000000060070
:10373c000400fa00100798000040eb00004f7800de
:10374c001e009000700060000000e00002003200db
:10375c0010c0b300004f78001e4078000080fa00c3
:10376c00000006000200fa00000f78009e80ea00bc
:10377c00007c800000806000007c88000080fa00e3
:10378c00000006000000fa00007c80000080fa00b7
:10379c00000006000200fa00faff0700000f780094
:1037ac001e0078009eff07000004e00002003200bb
:1037bc0000002800ebff07001e007800a4ff0700a4
:1037cc000004e0000200320000002400e5ff0700c6
:1037dc001e007800acff07000004e000020032007d
:1037ec0000202000dfff07001e007800b4ff070058
:1037fc000004e0000200320000082000d9ff07009e
:10380c001e007800bcff07000004e000020032003c
:10381c0000042000d3ff07001e007800c4ff07003f
:10382c000004e0000200320000012000cdff070080
:10383c000080fa00000006000000fa00802fef0064
:10384c000080fa00000006000000fa00c3e8a8009f
:10385c0000000000000000000080fa0000000600dc
:10386c000000fa00c3e8a9000000000000000000fe
:10387c000080fa00000006000000fa00f8ff0700c4
:10388c0071010700f0ff070020d221006100070042
:10389c0025a8a8000080fa00000006000000fa002d
:1038ac0000002800e00288000080fa0000000600fa
:1038bc000000fa00000024000003880010c0b300d0
:1038cc000cf0b7000080fa00000006000000fa00bf
:1038dc000c70ef00000000004003800061006000ed
:1038ec000000e000fcff3200800020002003880074
:1038fc000080fa00000006000200fa000040eb0015
:10390c00004f7800400380006100600000407800a8
:10391c000004e0000200320010c0b300004f780039
:10392c001e4078000080fa00000006000000fa003b
:10393c000cd0bf000080fa00000006000400fa0062
:10394c006000b800008fbe00b00380008000eb0068
:10395c00c000dd0000002000008fbe00a00380002e
:10396c008000eb003e017000ae8170000200be00d2
:10397c000080fa00000006000400fa006000b800a5
:10398c00008fbe00d00380008000eb00c000dd0083
:10399c0000002000008fbe00c00380008000eb0000
:1039ac003e017000ae8170000200be000080fa0083
:1039bc00000006000200fa000000eb00000f780087
:1039cc0041038000100e2000008f60001e00780064
:1039dc000080fa00000006000400fa006000b80045
:1039ec00008fbe00700380008000eb00c000dd0083
:1039fc0000002000008fbe00600380008000eb0000
:103a0c003e017000ae8170000200be000080fa0022
:103a1c00000006000200fa00000f78001e0078007b
:103a2c000000e000020032009e00780091808800c7
:103a3c000080fa00000006000000fa000080fa0086
:103a4c00000006000000fa00400880008000eb0037
:103a5c000080fa00000006000000fa002008800038
:103a6c008000eb000080fa00000006000000fa0065
:103a7c0000012000000888000421ef00300d230015
:103a8c004008880040db21002b0007000a000700db
:103a9c000080fa00000006000000fa000c0007008d
:103aac000021ef000421ef000080eb0040088800ab
:103abc000080fa00000006000000fa000028a900af
:103acc002028a80001e1a8000080fa0000000600f0
:103adc000000fa0001e1a9002028a9000080fa00ea
:103aec00000006000400fa00008fbe001e007800e3
:103afc00400888000080fa00000006000200fa006e
:103b0c00000f78001e0078000040780067406000cd
:103b1c000080fb00670060004400dd000242800072
:103b2c00f1f82f0081006100010070000042880054
:103b3c000080fa00000006000200fa00000f780076
:103b4c001e0078000000e000020032009e007800a9
:103b5c00f18088000080fa00000006000000fa00e6
:103b6c000080fa00000006000200fa00000f780046
:103b7c009e007800410888000080fa0000000600d2
:103b8c000000fa0010002300307c88002003200085
:103b9c00407c88008c2fef0010212000507c880086
:103bac0010102800707c8800d0072000807c8800d2
:103bbc0010022000907c880000502000d07c8800ef
:103bcc00b82fef00ba2fef00be2fef00002def0043
:103bdc00a02fef00a42fef00a62fef00a82fef00cf
:103bec00aa2fef00ae2fef00b02fef00b22fef0097
:103bfc001200200080072000a109200053f82000ab
:103c0c0080497800814978008249780012002000b0
:103c1c00600420007105200043f8200080497800e2
:103c2c00814978008249780000000000207c8000e7
:103c3c00610060000000e000fcff3a0000000000a2
:103c4c00217c800000022000008060000000e00069
:103c5c00fbff32000080fa00000006000000fa00b2
:103c6c00707c8000ee800a00000000000080fb00e9
:103c7c0000f0a7000000ea000000ea004f00de00a0
:103c8c00004078000080fa00000006000000fa00f6
:103c9c00062eef00222eef0000202000f07188008d
:103cac0020022000d0728800f001200010708800e3
:103cbc00f03f2000f0708800f0df2f00d0718800fa
:103ccc00d0fd2f00b07288000a2eef00262eef00d8
:103cdc00422eef005e2eef000c2eef00282eef0090
:103cec00442eef00602eef00082eef00242eef0084
:103cfc00402eef005c2eef00f001200000708800d9
:103d0c0070382000e0708800f00c2000c071880032
:103d1c0000c02200a07288000080fa00000006009b
:103d2c000000fa00b1428000f0f82f000080600023
:103d3c000040a000b042880001428000f0f82f0043
:103d4c00008060000040a000004288008143800099
:103d5c00f08f2f00008060000080a000804388005e
:103d6c000080fa00000006000000fa00b14280005a
:103d7c00f0f82f00008060000060a000b0428800c6
:103d8c0001428000f0f82f00008060000060a0006d
:103d9c000042880081438000f08f2f00008060007b
:103dac0000a0a000804388000080fa0000000600fc
:020000040000fa
:103dbc001410000006000000800000001a10000023
:103dcc000200000080000000201000002000000015
:103ddc00800000001c1000000200000082000000a7
:103dec00ffff00000c100000080000008000000025
:103dfc001e100000020000008000000000100000f7
:103e0c000c0000008200000094052f0004dc01006f
:0c3e1c000300030000ba86000000000054
:020000040000fa
:103e28000000fe00f21c020000000000821f780063
:103e3800728080000000110002002000810019003b
:103e48004f017800000006000000fe00801f780087
:103e5800811f7800821f780060038000801f78002f
:103e6800f21c0200000000004f017800020150001f
:103e78000201e900728088004f017800cf007800c5
:103e88004f007800000006000000fa00c3e8a80010
:103e980000000000000000000080fa00000006009a
:103ea8000000fa0037ff070079ff07004dfb070005
:103eb80072fe070079f90700edfe0700f2ff070020
:103ec80098ff07000080fa00000006000200fa00d0
:103ed800000f78009e007800e18088000000fe0056
:103ee8000080fa00000006000000fa00000221002d
:103ef8008007780080032100000188000080fa0014
:043f080000000600af
:020000040000fa
:020000040005f5
:047e0000ffffff0081
:020000040000fa
:020000040005f5
:047e2000ffffff0061
:020000040000fa
:020000040005f5
:047e300078ffff00d8
:020000040000fa
:020000040005f5
:047e38007bffff00cd
:020000040000fa
:020000040005f5
:047e4000ff7fff00c1
:020000040000fa
:020000040005f5
:047e4800ffffff0039
:020000040000fa
:020000040005f5
:047e5000deffff0052
:020000040000fa
:020000040005f5
:047e58000000ff0027
:020000040000fa
:020000040005f5
:047e60000000ff001f
:020000040000fa
:020000040005f5
:047e68000000ff0017
:020000040000fa
:020000040005f5
:047e70000000ff000f
:020000040000fa
:020000040005f5
:047e7800ffffff0009
:020000040000fa
:020000040005f5
:047e8000fffcff0004
:020000040000fa
:020000040005f5
:047e8800ffffff00f9
:020000040000fa
:020000040005f5
:047ff800ffffff0088
:020000040000fa
:020000040100f9
:04300000ffffff00cf
:00000001FF
